{
  "_format": "hh-sol-artifact-1",
  "contractName": "Raffle",
  "sourceName": "contracts/Raffle.sol",
  "abi": [
    {
      "inputs": [
        {
          "internalType": "address",
          "name": "vrfCoordinatorV2",
          "type": "address"
        },
        {
          "internalType": "uint64",
          "name": "subsId",
          "type": "uint64"
        },
        {
          "internalType": "bytes32",
          "name": "gasLane",
          "type": "bytes32"
        },
        {
          "internalType": "uint32",
          "name": "gasLimit",
          "type": "uint32"
        },
        {
          "internalType": "uint256",
          "name": "entryFee",
          "type": "uint256"
        },
        {
          "internalType": "uint256",
          "name": "timeInterval",
          "type": "uint256"
        }
      ],
      "stateMutability": "nonpayable",
      "type": "constructor"
    },
    {
      "inputs": [
        {
          "internalType": "address",
          "name": "have",
          "type": "address"
        },
        {
          "internalType": "address",
          "name": "want",
          "type": "address"
        }
      ],
      "name": "OnlyCoordinatorCanFulfill",
      "type": "error"
    },
    {
      "inputs": [],
      "name": "Raffle__NotEnoughETHEntered",
      "type": "error"
    },
    {
      "inputs": [],
      "name": "Raffle__RaffleNotOpen",
      "type": "error"
    },
    {
      "inputs": [],
      "name": "Raffle__TransferFailed",
      "type": "error"
    },
    {
      "inputs": [
        {
          "internalType": "uint256",
          "name": "currentBalance",
          "type": "uint256"
        },
        {
          "internalType": "uint256",
          "name": "numPlayers",
          "type": "uint256"
        },
        {
          "internalType": "uint256",
          "name": "raffleState",
          "type": "uint256"
        }
      ],
      "name": "Raffle__UpkeepNotNeeded",
      "type": "error"
    },
    {
      "anonymous": false,
      "inputs": [
        {
          "indexed": true,
          "internalType": "address",
          "name": "player",
          "type": "address"
        }
      ],
      "name": "RaffleEnter",
      "type": "event"
    },
    {
      "anonymous": false,
      "inputs": [
        {
          "indexed": true,
          "internalType": "uint256",
          "name": "requestId",
          "type": "uint256"
        }
      ],
      "name": "RequestedRaffleWinner",
      "type": "event"
    },
    {
      "anonymous": false,
      "inputs": [
        {
          "indexed": true,
          "internalType": "address",
          "name": "player",
          "type": "address"
        }
      ],
      "name": "WinnerPicked",
      "type": "event"
    },
    {
      "inputs": [
        {
          "internalType": "bytes",
          "name": "",
          "type": "bytes"
        }
      ],
      "name": "checkUpkeep",
      "outputs": [
        {
          "internalType": "bool",
          "name": "upkeepNeeded",
          "type": "bool"
        },
        {
          "internalType": "bytes",
          "name": "",
          "type": "bytes"
        }
      ],
      "stateMutability": "view",
      "type": "function"
    },
    {
      "inputs": [],
      "name": "enterRaffle",
      "outputs": [],
      "stateMutability": "payable",
      "type": "function"
    },
    {
      "inputs": [],
      "name": "getEntranceFee",
      "outputs": [
        {
          "internalType": "uint256",
          "name": "",
          "type": "uint256"
        }
      ],
      "stateMutability": "view",
      "type": "function"
    },
    {
      "inputs": [],
      "name": "getLastTimeStamp",
      "outputs": [
        {
          "internalType": "uint256",
          "name": "",
          "type": "uint256"
        }
      ],
      "stateMutability": "view",
      "type": "function"
    },
    {
      "inputs": [],
      "name": "getNumWords",
      "outputs": [
        {
          "internalType": "uint256",
          "name": "",
          "type": "uint256"
        }
      ],
      "stateMutability": "pure",
      "type": "function"
    },
    {
      "inputs": [],
      "name": "getNumberOfPlayers",
      "outputs": [
        {
          "internalType": "uint256",
          "name": "",
          "type": "uint256"
        }
      ],
      "stateMutability": "view",
      "type": "function"
    },
    {
      "inputs": [
        {
          "internalType": "uint256",
          "name": "index",
          "type": "uint256"
        }
      ],
      "name": "getPlayers",
      "outputs": [
        {
          "internalType": "address",
          "name": "",
          "type": "address"
        }
      ],
      "stateMutability": "view",
      "type": "function"
    },
    {
      "inputs": [],
      "name": "getRaffleState",
      "outputs": [
        {
          "internalType": "enum Raffle.RaffleState",
          "name": "",
          "type": "uint8"
        }
      ],
      "stateMutability": "view",
      "type": "function"
    },
    {
      "inputs": [],
      "name": "getRecentWinner",
      "outputs": [
        {
          "internalType": "address",
          "name": "",
          "type": "address"
        }
      ],
      "stateMutability": "view",
      "type": "function"
    },
    {
      "inputs": [],
      "name": "getRequestConfirmations",
      "outputs": [
        {
          "internalType": "uint256",
          "name": "",
          "type": "uint256"
        }
      ],
      "stateMutability": "pure",
      "type": "function"
    },
    {
      "inputs": [
        {
          "internalType": "bytes",
          "name": "",
          "type": "bytes"
        }
      ],
      "name": "performUpkeep",
      "outputs": [],
      "stateMutability": "nonpayable",
      "type": "function"
    },
    {
      "inputs": [
        {
          "internalType": "uint256",
          "name": "requestId",
          "type": "uint256"
        },
        {
          "internalType": "uint256[]",
          "name": "randomWords",
          "type": "uint256[]"
        }
      ],
      "name": "rawFulfillRandomWords",
      "outputs": [],
      "stateMutability": "nonpayable",
      "type": "function"
    }
  ],
  "bytecode": "0x6101606040523480156200001257600080fd5b50604051620017f8380380620017f88339818101604052810190620000389190620002a0565b858073ffffffffffffffffffffffffffffffffffffffff1660808173ffffffffffffffffffffffffffffffffffffffff1660601b81525050508160a081815250508573ffffffffffffffffffffffffffffffffffffffff1660c08173ffffffffffffffffffffffffffffffffffffffff1660601b815250508360e081815250508263ffffffff166101208163ffffffff1660e01b815250508467ffffffffffffffff166101008167ffffffffffffffff1660c01b815250506000600160146101000a81548160ff021916908360018111156200011957620001186200033c565b5b0217905550426002819055508061014081815250505050505050506200036b565b600080fd5b600073ffffffffffffffffffffffffffffffffffffffff82169050919050565b60006200016c826200013f565b9050919050565b6200017e816200015f565b81146200018a57600080fd5b50565b6000815190506200019e8162000173565b92915050565b600067ffffffffffffffff82169050919050565b620001c381620001a4565b8114620001cf57600080fd5b50565b600081519050620001e381620001b8565b92915050565b6000819050919050565b620001fe81620001e9565b81146200020a57600080fd5b50565b6000815190506200021e81620001f3565b92915050565b600063ffffffff82169050919050565b6200023f8162000224565b81146200024b57600080fd5b50565b6000815190506200025f8162000234565b92915050565b6000819050919050565b6200027a8162000265565b81146200028657600080fd5b50565b6000815190506200029a816200026f565b92915050565b60008060008060008060c08789031215620002c057620002bf6200013a565b5b6000620002d089828a016200018d565b9650506020620002e389828a01620001d2565b9550506040620002f689828a016200020d565b94505060606200030989828a016200024e565b93505060806200031c89828a0162000289565b92505060a06200032f89828a0162000289565b9150509295509295509295565b7f4e487b7100000000000000000000000000000000000000000000000000000000600052602160045260246000fd5b60805160601c60a05160c05160601c60e0516101005160c01c6101205160e01c61014051611418620003e060003960006107ed015260006106550152600061063201526000610611015260006105d50152600081816102b401526103b10152600081816102f1015261034501526114186000f3fe6080604052600436106100a75760003560e01c8063473f1ddc11610064578063473f1ddc1461019b57806353a2c19a146101c65780635f1b0fd8146101f15780636e04ff0d1461021c578063c1c244e81461025a578063fd6673f514610285576100a7565b806309bc33a7146100ac578063115cbaf5146100d75780631fe543e3146101025780632cfcc5391461012b5780634585e33b14610135578063460e20491461015e575b600080fd5b3480156100b857600080fd5b506100c16102b0565b6040516100ce9190610b99565b60405180910390f35b3480156100e357600080fd5b506100ec6102d8565b6040516100f99190610c2b565b60405180910390f35b34801561010e57600080fd5b5061012960048036038101906101249190610ddf565b6102ef565b005b6101336103af565b005b34801561014157600080fd5b5061015c60048036038101906101579190610e96565b61051e565b005b34801561016a57600080fd5b5061018560048036038101906101809190610ee3565b61071d565b6040516101929190610f51565b60405180910390f35b3480156101a757600080fd5b506101b0610764565b6040516101bd9190610f51565b60405180910390f35b3480156101d257600080fd5b506101db61078e565b6040516101e89190610b99565b60405180910390f35b3480156101fd57600080fd5b5061020661079d565b6040516102139190610b99565b60405180910390f35b34801561022857600080fd5b50610243600480360381019061023e9190611021565b6107aa565b60405161025192919061110d565b60405180910390f35b34801561026657600080fd5b5061026f610892565b60405161027c9190610b99565b60405180910390f35b34801561029157600080fd5b5061029a61089c565b6040516102a79190610b99565b60405180910390f35b60007f0000000000000000000000000000000000000000000000000000000000000000905090565b6000600160149054906101000a900460ff16905090565b7f000000000000000000000000000000000000000000000000000000000000000073ffffffffffffffffffffffffffffffffffffffff163373ffffffffffffffffffffffffffffffffffffffff16146103a157337f00000000000000000000000000000000000000000000000000000000000000006040517f1cf993f400000000000000000000000000000000000000000000000000000000815260040161039892919061113d565b60405180910390fd5b6103ab82826108a8565b5050565b7f0000000000000000000000000000000000000000000000000000000000000000341015610409576040517fbd4e069500000000000000000000000000000000000000000000000000000000815260040160405180910390fd5b6000600181111561041d5761041c610bb4565b5b600160149054906101000a900460ff16600181111561043f5761043e610bb4565b5b14610476576040517fd24a271400000000000000000000000000000000000000000000000000000000815260040160405180910390fd5b6000339080600181540180825580915050600190039060005260206000200160009091909190916101000a81548173ffffffffffffffffffffffffffffffffffffffff021916908373ffffffffffffffffffffffffffffffffffffffff1602179055503373ffffffffffffffffffffffffffffffffffffffff167f0805e1d667bddb8a95f0f09880cf94f403fb596ce79928d9f29b74203ba284d460405160405180910390a2565b6000610538604051806020016040528060008152506107aa565b509050806105a75747600080549050600160149054906101000a900460ff16600181111561056957610568610bb4565b5b6040517f584327aa00000000000000000000000000000000000000000000000000000000815260040161059e93929190611166565b60405180910390fd5b60018060146101000a81548160ff021916908360018111156105cc576105cb610bb4565b5b021790555060007f000000000000000000000000000000000000000000000000000000000000000073ffffffffffffffffffffffffffffffffffffffff16635d3b1d307f00000000000000000000000000000000000000000000000000000000000000007f000000000000000000000000000000000000000000000000000000000000000060037f000000000000000000000000000000000000000000000000000000000000000060016040518663ffffffff1660e01b8152600401610696959493929190611215565b602060405180830381600087803b1580156106b057600080fd5b505af11580156106c4573d6000803e3d6000fd5b505050506040513d601f19601f820116820180604052508101906106e8919061127d565b9050807fcd6e45c8998311cab7e9d4385596cac867e20a0587194b954fa3a731c93ce78b60405160405180910390a250505050565b6000808281548110610732576107316112aa565b5b9060005260206000200160009054906101000a900473ffffffffffffffffffffffffffffffffffffffff169050919050565b6000600160009054906101000a900473ffffffffffffffffffffffffffffffffffffffff16905090565b6000600163ffffffff16905090565b6000600361ffff16905090565b600060606000600160149054906101000a900460ff1660018111156107d2576107d1610bb4565b5b600060018111156107e6576107e5610bb4565b5b14905060007f00000000000000000000000000000000000000000000000000000000000000006002544261081a9190611308565b1190506000806000805490501190506000804711905082801561083a5750835b80156108435750805b801561084c5750815b9550856040518060400160405280600381526020017f30783000000000000000000000000000000000000000000000000000000000008152509550955050505050915091565b6000600254905090565b60008080549050905090565b60008080549050826000815181106108c3576108c26112aa565b5b60200260200101516108d5919061136b565b905060008082815481106108ec576108eb6112aa565b5b9060005260206000200160009054906101000a900473ffffffffffffffffffffffffffffffffffffffff16905080600160006101000a81548173ffffffffffffffffffffffffffffffffffffffff021916908373ffffffffffffffffffffffffffffffffffffffff1602179055506000600160146101000a81548160ff021916908360018111156109805761097f610bb4565b5b0217905550600067ffffffffffffffff8111156109a05761099f610c9c565b5b6040519080825280602002602001820160405280156109ce5781602001602082028036833780820191505090505b50600090805190602001906109e4929190610ad9565b504260028190555060008173ffffffffffffffffffffffffffffffffffffffff1647604051610a12906113cd565b60006040518083038185875af1925050503d8060008114610a4f576040519150601f19603f3d011682016040523d82523d6000602084013e610a54565b606091505b5050905080610a8f576040517fa1d04b3900000000000000000000000000000000000000000000000000000000815260040160405180910390fd5b8173ffffffffffffffffffffffffffffffffffffffff167f5b690ec4a06fe979403046eaeea5b3ce38524683c3001f662c8b5a829632f7df60405160405180910390a25050505050565b828054828255906000526020600020908101928215610b52579160200282015b82811115610b515782518260006101000a81548173ffffffffffffffffffffffffffffffffffffffff021916908373ffffffffffffffffffffffffffffffffffffffff16021790555091602001919060010190610af9565b5b509050610b5f9190610b63565b5090565b5b80821115610b7c576000816000905550600101610b64565b5090565b6000819050919050565b610b9381610b80565b82525050565b6000602082019050610bae6000830184610b8a565b92915050565b7f4e487b7100000000000000000000000000000000000000000000000000000000600052602160045260246000fd5b60028110610bf457610bf3610bb4565b5b50565b6000819050610c0582610be3565b919050565b6000610c1582610bf7565b9050919050565b610c2581610c0a565b82525050565b6000602082019050610c406000830184610c1c565b92915050565b6000604051905090565b600080fd5b600080fd5b610c6381610b80565b8114610c6e57600080fd5b50565b600081359050610c8081610c5a565b92915050565b600080fd5b6000601f19601f8301169050919050565b7f4e487b7100000000000000000000000000000000000000000000000000000000600052604160045260246000fd5b610cd482610c8b565b810181811067ffffffffffffffff82111715610cf357610cf2610c9c565b5b80604052505050565b6000610d06610c46565b9050610d128282610ccb565b919050565b600067ffffffffffffffff821115610d3257610d31610c9c565b5b602082029050602081019050919050565b600080fd5b6000610d5b610d5684610d17565b610cfc565b90508083825260208201905060208402830185811115610d7e57610d7d610d43565b5b835b81811015610da75780610d938882610c71565b845260208401935050602081019050610d80565b5050509392505050565b600082601f830112610dc657610dc5610c86565b5b8135610dd6848260208601610d48565b91505092915050565b60008060408385031215610df657610df5610c50565b5b6000610e0485828601610c71565b925050602083013567ffffffffffffffff811115610e2557610e24610c55565b5b610e3185828601610db1565b9150509250929050565b600080fd5b60008083601f840112610e5657610e55610c86565b5b8235905067ffffffffffffffff811115610e7357610e72610e3b565b5b602083019150836001820283011115610e8f57610e8e610d43565b5b9250929050565b60008060208385031215610ead57610eac610c50565b5b600083013567ffffffffffffffff811115610ecb57610eca610c55565b5b610ed785828601610e40565b92509250509250929050565b600060208284031215610ef957610ef8610c50565b5b6000610f0784828501610c71565b91505092915050565b600073ffffffffffffffffffffffffffffffffffffffff82169050919050565b6000610f3b82610f10565b9050919050565b610f4b81610f30565b82525050565b6000602082019050610f666000830184610f42565b92915050565b600080fd5b600067ffffffffffffffff821115610f8c57610f8b610c9c565b5b610f9582610c8b565b9050602081019050919050565b82818337600083830152505050565b6000610fc4610fbf84610f71565b610cfc565b905082815260208101848484011115610fe057610fdf610f6c565b5b610feb848285610fa2565b509392505050565b600082601f83011261100857611007610c86565b5b8135611018848260208601610fb1565b91505092915050565b60006020828403121561103757611036610c50565b5b600082013567ffffffffffffffff81111561105557611054610c55565b5b61106184828501610ff3565b91505092915050565b60008115159050919050565b61107f8161106a565b82525050565b600081519050919050565b600082825260208201905092915050565b60005b838110156110bf5780820151818401526020810190506110a4565b838111156110ce576000848401525b50505050565b60006110df82611085565b6110e98185611090565b93506110f98185602086016110a1565b61110281610c8b565b840191505092915050565b60006040820190506111226000830185611076565b818103602083015261113481846110d4565b90509392505050565b60006040820190506111526000830185610f42565b61115f6020830184610f42565b9392505050565b600060608201905061117b6000830186610b8a565b6111886020830185610b8a565b6111956040830184610b8a565b949350505050565b6000819050919050565b6111b08161119d565b82525050565b600067ffffffffffffffff82169050919050565b6111d3816111b6565b82525050565b600061ffff82169050919050565b6111f0816111d9565b82525050565b600063ffffffff82169050919050565b61120f816111f6565b82525050565b600060a08201905061122a60008301886111a7565b61123760208301876111ca565b61124460408301866111e7565b6112516060830185611206565b61125e6080830184611206565b9695505050505050565b60008151905061127781610c5a565b92915050565b60006020828403121561129357611292610c50565b5b60006112a184828501611268565b91505092915050565b7f4e487b7100000000000000000000000000000000000000000000000000000000600052603260045260246000fd5b7f4e487b7100000000000000000000000000000000000000000000000000000000600052601160045260246000fd5b600061131382610b80565b915061131e83610b80565b925082821015611331576113306112d9565b5b828203905092915050565b7f4e487b7100000000000000000000000000000000000000000000000000000000600052601260045260246000fd5b600061137682610b80565b915061138183610b80565b9250826113915761139061133c565b5b828206905092915050565b600081905092915050565b50565b60006113b760008361139c565b91506113c2826113a7565b600082019050919050565b60006113d8826113aa565b915081905091905056fea2646970667358221220f15b482825fefa3511f7466f343b42d0f6d3b732553635475feee3db049258d064736f6c63430008080033",
  "linkReferences": {},
  "deployedLinkReferences": {}
}